:020000004C2B87
:0400060000000800EE
:10000A00083083120313FC002330FD00FD0B0B287C
:06001A00FC0B0B2808009E
:10002000103083120313FD00FD0B1428000008009C
:10003000831203179D1B1E2886131F2886171D1B5E
:1000400023280613242806179D1A282886122928F3
:1000500086161D1A2D2806122E280616831603133F
:100060006F18352883120615372883120611861556
:100070000320861103179D193F28861340288617F1
:100080001D1944280613452806179D18492886126D
:100090004A2886161D184E2806124F280616831663
:1000A00003136F1856288312061558288312061159
:1000B00086150320861183166F1C60280520612891
:0400C0001020080004
:1000C400831203179D019F01A0011030A100043089
:1000D400200203189228F030031388000317210923
:1000E400831603138800032003200F3083120805AE
:1000F400F000700803179E00700803198C281F086D
:100104009D001E0803198A289E0C9E139D0A8328AD
:100114000430A000A10D211004309F07A00A692813
:060124001D08F0000800B8
:0E012A00033083120313FD00FD0B992808001B
:10013800AE288030831203179A00C128C0309A0075
:10014800C12894309A00C128D4309A00C128803040
:100158009A00C128831203171A08013A03199D2827
:100168001A08023A0319A2281A08033A0319A528FB
:100178001A08043A0319A828AB281B03F0001A0828
:10018800F00770089A00831603136F14700883121F
:1001980003179D00182083166F10831203171C087D
:0A01A8009D00182083166F14080054
:1001B200831603178C1CDF280000D92883121A0823
:1001C2008D001B088C0083168C130C150B08F00095
:1001D2008B1355308D00AA308D008C14F01BF32840
:0A01E2008B13F4288B170C11080092
:1001EC00831603136F10831203171A089D0018202F
:0601FC0083166F140800D9
:10020200622070089A000F3003130805F0000319EA
:0E0212000C299520042903171A08F000080093
:10022000831203171A088D0083168C130C14831283
:060230000C08F0000800BC
:100236001A3083120313FC00F830FD00FD0B212950
:08024600FC0B21290000080057
:10024E001B2103179A0183160313630883120317E6
:10025E009B00D9201B21013003179A00831603132C
:10026E006408831203179B00D9201B210230031749
:10027E009A00831603136508831203179B00D92077
:10028E001B21033003179A0083160313660883128B
:08029E0003179B00D9200800A2
:1002A6001B2103179A011021700890001B210130B1
:1002B60003179A001021700891001B2102300317C2
:1002C6009A001021700892001B21033003179A0030
:0A02D6001021700893001B2108009E
:1002E00083120313EF01012170080313EF0070085C
:1002F00003197329AB293130EF00EB293230EF00BD
:10030000EB293330EF00EB293430EF00EB293530A7
:10031000EF00EB293630EF00EB293730EF00EB2907
:100320003830EF00EB293930EF00EB294130EF0096
:10033000EB294230EF00EB294330EF00EB2944304A
:10034000EF00EB292A30EF00EB293030EF00EB29EA
:100350002330EF00EB296F08013A03197B296F085E
:10036000023A03197E296F08033A031981296F089D
:10037000053A031984296F08063A031987296F087B
:10038000073A03198A296F08093A03198D296F085A
:100390000A3A031990296F080B3A031993296F0839
:1003A000043A031996296F08083A031999296F0826
:1003B0000C3A03199C296F08103A03199F296F08FA
:1003C0000D3A0319A2296F080E3A0319A5296F08DF
:1003D0000F3A0319A8292F08E33E84006F08800014
:1003E000023003179A00063003132F0703179B00F0
:1003F00003132F08E33E8400000803179C009C2091
:0A0400008312AF0A0319B00A0800C6
:0E040A00831603136E088A006D088200080036
:100418001E2A8030831203179600312AC0309600B6
:10042800312A94309600312AD4309600312A80300F
:100438009600312A831203171608013A03190D2A68
:100448001608023A0319122A1608033A0319152A3C
:100458001608043A0319182A1B2A1703F00016086D
:10046800F0077008960070089D00182083166F101A
:100478008312031799011908180784000008031943
:100488004F2A19081807840000089A00F6208312DA
:0E0498000317990A3F2A831603136F140800F6
:1004A6000130831203179D001820013003179600B0
:1004B60002309700313098000C220330FB008A305E
:1004C600FC005530FD00FD0B662AFC0B662AFB0B73
:1004D600662A000000008312AF01B0017021831666
:1004E60063082A3A031D782A532A70218316640862
:1004F6002A3A031D7F2A532A7021831665082A3A51
:10050600031D862A532A7021831666082A3A031D7C
:100516008D2A532A7021831667082A3A031D942AC6
:10052600532A6708233A031DBF2A27215321033084
:10053600FB008A30FC005530FD00FD0BA02AFC0BA9
:10054600A02AFB0BA02A0000000002300317960029
:1005560005309700263098000C220830FB009D30AD
:10056600FC000530FD00FD0BB62AFC0BB62AFB0B82
:10057600B62A00000000DA2A0130831203179D0014
:100586001820013003179600073097002030980096
:100596000C220630FB001330FC00AD30FD00FD0BD5
:1005A600D22AFC0BD22AFB0BD22A0000000008003C
:1005B6008316031386110611061286120613861376
:1005C600831286110611861306138612061205205B
:1005D6000520052086160616861503208611052099
:1005E6008615032086110520861503208611052011
:1005F600061286150320861105208615032086110E
:100606008612861786150320861105208613061680
:1006160086150320861106128615032086110520ED
:1006260086150320861106168615032086110520D9
:1006360006128615032086118617061786160616D5
:0E064600861503208611052083166F14080008
:10065400033083120313FB008A30FC005530FD0085
:10066400FD0B322BFC0B322BFB0B322B000000005A
:0206740008007C
:0A067600FF3083160313880008000C
:1006800005228A110A128000840AED0A0319EE0A73
:08069000F003031D402B0800DC
:1006980096260730831603139F04203085008901AE
:1006A8008312091405113B23DB2253210317100879
:1006B800FF3A031D842B1108FF3A031D842B1208EF
:1006C800FF3A031D842B1308FF3A031D842B9A015C
:1006D80032309B00D9201B21013003179A00353096
:1006E8009B00D9201B21023003179A0038309B0049
:1006F800D9201B21033003179A0030309B00D920E2
:100708005321013003179D0018200C3003179D005A
:1007180018200330FB008A30FC005530FD00FD0B2B
:10072800932BFC0B932BFB0B932B00000000013049
:100738000317960002309700B83098000C22023058
:1007480083120317960003309700AE3098000C22EE
:100758001030FB003930FC000D30FD00FD0BB22BD2
:10076800FC0BB22BFB0BB22B0000000001308312F4
:1007780003179D0018200317940195018312031392
:10078800051485118510013003179D0018200230CB
:100798000317960004309700D83098000C22831273
:1007A800AF01B0017021831663082A3A031DFC2D9E
:1007B8000130831203179D0018200130031796009B
:1007C80004309700CC3098000C228312AF01B0019E
:1007D8007021831663082A3A031DF32BDC2B702142
:1007E800831664082A3A031DFA2BDC2B7021831622
:1007F80065082A3A031D012CDC2B70218316660834
:100808002A3A031D082CDC2B7021831667082A3A24
:10081800031D0F2CDC2B6308323A031D312C6408AE
:10082800333A031D312C6508343A031D312C660810
:10083800353A031D312C6708353A031D312C7021D8
:1008480083166808233A031D312C83128514051179
:100858000910532283120914C22B83128030031704
:100868001506F00080307002031D3C2C0330140282
:100878000318632D831603136308831203171006E6
:10088800031D632D831603136408831203171106CF
:10089800031D632D831603136508831203171206BD
:1008A800031D632D831603136608831203171306AB
:1008B800031D632D831603136708233A031D632D55
:1008C8008312051D8B2C051109140317940195013A
:1008D80001309D0018200130031796000230970060
:1008E800B83098000C221030FB003930FC000D3075
:1008F800FD00FD0B7D2CFC0B7D2CFB0B7D2C0000E3
:1009080000000130831203179D001820C22B01300C
:1009180003179D0018200130031796000230970036
:100928005D3098000C2202308312031796000230C3
:1009380097004F3098000C228312031794019501F9
:1009480003130510051509101F30FB007130FC005A
:100958001E30FD00FD0BAE2CFC0BAE2CFB0BAE2CA1
:100968000000013003179D0018200230031796007D
:10097800023097004F3098000C228312AF01B0016B
:1009880080303006F00080307002031DCD2C03301B
:100998002F020318D82C1C3003179D0018202A2377
:1009A800AF0A0319B00AC42C0330FB008A30FC00DC
:1009B8005530FD00FD0BDE2CFC0BDE2CFB0BDE2C7A
:1009C80000000000AF01B00180303006F000803038
:1009D8007002031DF12C05302F020318FC2C18306F
:1009E80003179D0018202A23AF0A0319B00AE82C20
:1009F8000330FB008A30FC005530FD00FD0B022D52
:100A0800FC0B022DFB0B022D00000000AF01B00112
:100A180080303006F00080307002031D152D023042
:100A28002F020318202D1C3003179D0018202A239D
:100A3800AF0A0319B00A0C2D0B30FB002630FC005E
:100A48005D30FD00FD0B262DFC0B262DFB0B262D06
:100A580000000000851E622D1030FB003930FC00BC
:100A68000D30FD00FD0B362DFC0B362DFB0B362D06
:100A780000000000051109140317940195010130C5
:100A88009D00182001300317960002309700B830F7
:100A980098000C220630FB001330FC00AD30FD003E
:100AA800FD0B542DFC0B542DFB0B542D00000000A6
:100AB8000130831203179D001820C22B812D831249
:100AC8000317940A0319950A01309D001820013074
:100AD8000317960003309700403098000C220B3023
:100AE800FB002630FC005D30FD00FD0B792DFC0B72
:100AF800792DFB0B792D000000008030831203173D
:100B08001506F00080307002031D8C2D033014028E
:100B1800031CFC2D031305110510851580306E0686
:100B2800F00080307002031D9B2D03306D02031806
:100B3800F32D013003179D0018200330FB008A3085
:100B4800FC005530FD00FD0BA72DFC0BA72DFB0B62
:100B5800A72D00000000013003179600033097000E
:100B6800A03098000C220330FB008A30FC0055307E
:100B7800FD00FD0BBD2DFC0BBD2DFB0BBD2D00009D
:100B880000000130831203179D0018200330FB007A
:100B98008A30FC005530FD00FD0BD02DFC0BD02D0C
:100BA800FB0BD02D00000000013003179600033026
:100BB8009700A03098000C220630FB001330FC0090
:100BC800AD30FD00FD0BE62DFC0BE62DFB0BE62DF5
:100BD800000000008312ED0A0319EE0A922D02307C
:100BE80003179400003095000313ED01EE01C22BAA
:040BF800C22BFD2DE2
:100D2C00203084004D3083120313F00003308316FF
:100D3C00ED000630EE004023A03084000E30F000B1
:100D4C0085308316ED000630EE0040236D308400B4
:100D5C000230F00093308316ED000630EE00402395
:100D6C00AE3084003530F00050308316ED00063084
:060D7C00EE004023080018
:0C0C06004534523452344F345234003420
:100C12002A342A3444346F346E3465342A342A3404
:020C220000349C
:040C24000034003464
:100C280045344E3454344534523420344E344534EB
:0E0C38005734203443344F34443445340034B0
:100C460041344334433445345334533420344434E8
:0E0C560045344E3449344534443400340034BF
:100C640020342A342A34573445344C3443344F34F2
:0C0C74004D3445342A342A342034003436
:100C800041344334433445345334533420344734AB
:100C9000523441344E3445345434453444340034B1
:100CA00049346E34203453346534633475347234CB
:040CB0006534003473
:100CB4004D346F34743469346F346E3420344434B6
:100CC40065347434653463347434653464340034A2
:080CD400003400340034003448
:100CDC0045344E34543445345234203443344F3438
:080CEC004434453400340034A7
:100CF400203450345234453453345334203427345C
:060D04002A3427340034FC
:100D0A0020342A3420345734413452344E3449344E
:0C0D1A004E34473420342A342034003496
:040D26000034003461
:02400E004A2F37
:00000001FF
